{
  "_format": "hh-sol-artifact-1",
  "contractName": "DonorRegistry",
  "sourceName": "contracts/DonorRegistry.sol",
  "abi": [
    {
      "inputs": [],
      "stateMutability": "nonpayable",
      "type": "constructor"
    },
    {
      "anonymous": false,
      "inputs": [
        {
          "indexed": true,
          "internalType": "uint256",
          "name": "donorId",
          "type": "uint256"
        },
        {
          "indexed": true,
          "internalType": "address",
          "name": "owner",
          "type": "address"
        },
        {
          "indexed": false,
          "internalType": "string",
          "name": "metadataCID",
          "type": "string"
        }
      ],
      "name": "DonorRegistered",
      "type": "event"
    },
    {
      "anonymous": false,
      "inputs": [
        {
          "indexed": true,
          "internalType": "uint256",
          "name": "donorId",
          "type": "uint256"
        },
        {
          "indexed": false,
          "internalType": "uint256",
          "name": "newUsageCount",
          "type": "uint256"
        }
      ],
      "name": "DonorUsageUpdated",
      "type": "event"
    },
    {
      "anonymous": false,
      "inputs": [
        {
          "indexed": false,
          "internalType": "uint256",
          "name": "newTotalMatches",
          "type": "uint256"
        }
      ],
      "name": "SuccessfulMatchIncremented",
      "type": "event"
    },
    {
      "inputs": [],
      "name": "donorCount",
      "outputs": [
        {
          "internalType": "uint256",
          "name": "",
          "type": "uint256"
        }
      ],
      "stateMutability": "view",
      "type": "function"
    },
    {
      "inputs": [
        {
          "internalType": "uint256",
          "name": "",
          "type": "uint256"
        }
      ],
      "name": "donors",
      "outputs": [
        {
          "internalType": "uint256",
          "name": "id",
          "type": "uint256"
        },
        {
          "internalType": "string",
          "name": "metadataCID",
          "type": "string"
        },
        {
          "internalType": "uint256",
          "name": "usageCount",
          "type": "uint256"
        },
        {
          "internalType": "uint256",
          "name": "maxUsage",
          "type": "uint256"
        },
        {
          "internalType": "bool",
          "name": "isActive",
          "type": "bool"
        },
        {
          "internalType": "address",
          "name": "owner",
          "type": "address"
        }
      ],
      "stateMutability": "view",
      "type": "function"
    },
    {
      "inputs": [
        {
          "internalType": "uint256",
          "name": "donorId",
          "type": "uint256"
        }
      ],
      "name": "getDonor",
      "outputs": [
        {
          "components": [
            {
              "internalType": "uint256",
              "name": "id",
              "type": "uint256"
            },
            {
              "internalType": "string",
              "name": "metadataCID",
              "type": "string"
            },
            {
              "internalType": "uint256",
              "name": "usageCount",
              "type": "uint256"
            },
            {
              "internalType": "uint256",
              "name": "maxUsage",
              "type": "uint256"
            },
            {
              "internalType": "bool",
              "name": "isActive",
              "type": "bool"
            },
            {
              "internalType": "address",
              "name": "owner",
              "type": "address"
            }
          ],
          "internalType": "struct DonorRegistry.Donor",
          "name": "",
          "type": "tuple"
        }
      ],
      "stateMutability": "view",
      "type": "function"
    },
    {
      "inputs": [],
      "name": "getDonors",
      "outputs": [
        {
          "components": [
            {
              "internalType": "uint256",
              "name": "id",
              "type": "uint256"
            },
            {
              "internalType": "string",
              "name": "metadataCID",
              "type": "string"
            },
            {
              "internalType": "uint256",
              "name": "usageCount",
              "type": "uint256"
            },
            {
              "internalType": "uint256",
              "name": "maxUsage",
              "type": "uint256"
            },
            {
              "internalType": "bool",
              "name": "isActive",
              "type": "bool"
            },
            {
              "internalType": "address",
              "name": "owner",
              "type": "address"
            }
          ],
          "internalType": "struct DonorRegistry.Donor[]",
          "name": "",
          "type": "tuple[]"
        }
      ],
      "stateMutability": "view",
      "type": "function"
    },
    {
      "inputs": [],
      "name": "getTotalSuccessfulMatches",
      "outputs": [
        {
          "internalType": "uint256",
          "name": "",
          "type": "uint256"
        }
      ],
      "stateMutability": "view",
      "type": "function"
    },
    {
      "inputs": [
        {
          "internalType": "uint256",
          "name": "donorId",
          "type": "uint256"
        }
      ],
      "name": "incrementDonorUsage",
      "outputs": [],
      "stateMutability": "nonpayable",
      "type": "function"
    },
    {
      "inputs": [
        {
          "internalType": "string",
          "name": "metadataCID",
          "type": "string"
        },
        {
          "internalType": "uint256",
          "name": "_maxUsage",
          "type": "uint256"
        }
      ],
      "name": "registerDonor",
      "outputs": [],
      "stateMutability": "nonpayable",
      "type": "function"
    },
    {
      "inputs": [],
      "name": "totalSuccessfulMatches",
      "outputs": [
        {
          "internalType": "uint256",
          "name": "",
          "type": "uint256"
        }
      ],
      "stateMutability": "view",
      "type": "function"
    }
  ],
  "bytecode": "0x608060405234801561001057600080fd5b506114ef806100206000396000f3fe608060405234801561001057600080fd5b50600436106100885760003560e01c8063aefb11e31161005b578063aefb11e31461012c578063c407670f1461014a578063c58fb3a414610168578063e511e24a1461018657610088565b80630a7c3acf1461008d5780634abfa163146100a95780636136a906146100de57806396f300d41461010e575b600080fd5b6100a760048036038101906100a29190610c85565b6101a2565b005b6100c360048036038101906100be9190610c85565b6103ed565b6040516100d59695949392919061119c565b60405180910390f35b6100f860048036038101906100f39190610c85565b6104de565b604051610105919061115f565b60405180910390f35b61011661067c565b604051610123919061107b565b60405180910390f35b6101346108b7565b6040516101419190611181565b60405180910390f35b6101526108c1565b60405161015f9190611181565b60405180910390f35b6101706108c7565b60405161017d9190611181565b60405180910390f35b6101a0600480360381019061019b9190610c31565b6108cd565b005b6000811180156101b457506001548111155b6101f3576040517f08c379a00000000000000000000000000000000000000000000000000000000081526004016101ea906110bf565b60405180910390fd5b60008082815260200190815260200160002060040160009054906101000a900460ff16610255576040517f08c379a000000000000000000000000000000000000000000000000000000000815260040161024c906110ff565b60405180910390fd5b6000808281526020019081526020016000206003015460008083815260200190815260200160002060020154106102c1576040517f08c379a00000000000000000000000000000000000000000000000000000000081526004016102b89061113f565b60405180910390fd5b60008082815260200190815260200160002060020160008154809291906102e7906113bb565b919050555060008082815260200190815260200160002060030154600080838152602001908152602001600020600201541061034c57600080600083815260200190815260200160002060040160006101000a81548160ff0219169083151502179055505b6002600081548092919061035f906113bb565b9190505550807f63a6e9f5f1ddec945794bf4718e8bee97eacd963ff8afa7ba75ab8749c14b66c600080848152602001908152602001600020600201546040516103a99190611181565b60405180910390a27fd8ab92b6640889a4318c98e0550a935a24d65d2fd129270b60cf196d76446a6b6002546040516103e29190611181565b60405180910390a150565b600060205280600052604060002060009150905080600001549080600101805461041690611389565b80601f016020809104026020016040519081016040528092919081815260200182805461044290611389565b801561048f5780601f106104645761010080835404028352916020019161048f565b820191906000526020600020905b81548152906001019060200180831161047257829003601f168201915b5050505050908060020154908060030154908060040160009054906101000a900460ff16908060040160019054906101000a900473ffffffffffffffffffffffffffffffffffffffff16905086565b6104e6610ac3565b6000821180156104f857506001548211155b610537576040517f08c379a000000000000000000000000000000000000000000000000000000000815260040161052e906110bf565b60405180910390fd5b6000808381526020019081526020016000206040518060c00160405290816000820154815260200160018201805461056e90611389565b80601f016020809104026020016040519081016040528092919081815260200182805461059a90611389565b80156105e75780601f106105bc576101008083540402835291602001916105e7565b820191906000526020600020905b8154815290600101906020018083116105ca57829003601f168201915b5050505050815260200160028201548152602001600382015481526020016004820160009054906101000a900460ff161515151581526020016004820160019054906101000a900473ffffffffffffffffffffffffffffffffffffffff1673ffffffffffffffffffffffffffffffffffffffff1673ffffffffffffffffffffffffffffffffffffffff16815250509050919050565b6060600060015467ffffffffffffffff8111156106c2577f4e487b7100000000000000000000000000000000000000000000000000000000600052604160045260246000fd5b6040519080825280602002602001820160405280156106fb57816020015b6106e8610ac3565b8152602001906001900390816106e05790505b5090506000600190505b60015481116108af576000808281526020019081526020016000206040518060c00160405290816000820154815260200160018201805461074590611389565b80601f016020809104026020016040519081016040528092919081815260200182805461077190611389565b80156107be5780601f10610793576101008083540402835291602001916107be565b820191906000526020600020905b8154815290600101906020018083116107a157829003601f168201915b5050505050815260200160028201548152602001600382015481526020016004820160009054906101000a900460ff161515151581526020016004820160019054906101000a900473ffffffffffffffffffffffffffffffffffffffff1673ffffffffffffffffffffffffffffffffffffffff1673ffffffffffffffffffffffffffffffffffffffff16815250508260018361085a91906112cb565b81518110610891577f4e487b7100000000000000000000000000000000000000000000000000000000600052603260045260246000fd5b602002602001018190525080806108a7906113bb565b915050610705565b508091505090565b6000600254905090565b60015481565b60025481565b6000825111610911576040517f08c379a0000000000000000000000000000000000000000000000000000000008152600401610908906110df565b60405180910390fd5b60008111610954576040517f08c379a000000000000000000000000000000000000000000000000000000000815260040161094b9061111f565b60405180910390fd5b60016000815480929190610967906113bb565b91905055506040518060c001604052806001548152602001838152602001600081526020018281526020016001151581526020013373ffffffffffffffffffffffffffffffffffffffff1681525060008060015481526020019081526020016000206000820151816000015560208201518160010190805190602001906109ef929190610b11565b50604082015181600201556060820151816003015560808201518160040160006101000a81548160ff02191690831515021790555060a08201518160040160016101000a81548173ffffffffffffffffffffffffffffffffffffffff021916908373ffffffffffffffffffffffffffffffffffffffff1602179055509050503373ffffffffffffffffffffffffffffffffffffffff166001547f40e6e92d415a6b6b15703f02efd642a1d536d8cf587ccc3cc1e3a843bf883f8384604051610ab7919061109d565b60405180910390a35050565b6040518060c0016040528060008152602001606081526020016000815260200160008152602001600015158152602001600073ffffffffffffffffffffffffffffffffffffffff1681525090565b828054610b1d90611389565b90600052602060002090601f016020900481019282610b3f5760008555610b86565b82601f10610b5857805160ff1916838001178555610b86565b82800160010185558215610b86579182015b82811115610b85578251825591602001919060010190610b6a565b5b509050610b939190610b97565b5090565b5b80821115610bb0576000816000905550600101610b98565b5090565b6000610bc7610bc284611235565b611204565b905082815260208101848484011115610bdf57600080fd5b610bea848285611347565b509392505050565b600082601f830112610c0357600080fd5b8135610c13848260208601610bb4565b91505092915050565b600081359050610c2b816114a2565b92915050565b60008060408385031215610c4457600080fd5b600083013567ffffffffffffffff811115610c5e57600080fd5b610c6a85828601610bf2565b9250506020610c7b85828601610c1c565b9150509250929050565b600060208284031215610c9757600080fd5b6000610ca584828501610c1c565b91505092915050565b6000610cba8383610f4b565b905092915050565b610ccb816112ff565b82525050565b610cda816112ff565b82525050565b6000610ceb82611275565b610cf58185611298565b935083602082028501610d0785611265565b8060005b85811015610d435784840389528151610d248582610cae565b9450610d2f8361128b565b925060208a01995050600181019050610d0b565b50829750879550505050505092915050565b610d5e81611311565b82525050565b610d6d81611311565b82525050565b6000610d7e82611280565b610d8881856112a9565b9350610d98818560208601611356565b610da181611491565b840191505092915050565b6000610db782611280565b610dc181856112ba565b9350610dd1818560208601611356565b610dda81611491565b840191505092915050565b6000610df26010836112ba565b91507f496e76616c696420646f6e6f72204944000000000000000000000000000000006000830152602082019050919050565b6000610e32601c836112ba565b91507f4d65746164617461204349442063616e6e6f7420626520656d707479000000006000830152602082019050919050565b6000610e726013836112ba565b91507f446f6e6f72206973206e6f7420616374697665000000000000000000000000006000830152602082019050919050565b6000610eb26023836112ba565b91507f4d6178207573616765206d7573742062652067726561746572207468616e207a60008301527f65726f00000000000000000000000000000000000000000000000000000000006020830152604082019050919050565b6000610f186015836112ba565b91507f4d6178696d756d207573616765207265616368656400000000000000000000006000830152602082019050919050565b600060c083016000830151610f63600086018261105d565b5060208301518482036020860152610f7b8282610d73565b9150506040830151610f90604086018261105d565b506060830151610fa3606086018261105d565b506080830151610fb66080860182610d55565b5060a0830151610fc960a0860182610cc2565b508091505092915050565b600060c083016000830151610fec600086018261105d565b50602083015184820360208601526110048282610d73565b9150506040830151611019604086018261105d565b50606083015161102c606086018261105d565b50608083015161103f6080860182610d55565b5060a083015161105260a0860182610cc2565b508091505092915050565b6110668161133d565b82525050565b6110758161133d565b82525050565b600060208201905081810360008301526110958184610ce0565b905092915050565b600060208201905081810360008301526110b78184610dac565b905092915050565b600060208201905081810360008301526110d881610de5565b9050919050565b600060208201905081810360008301526110f881610e25565b9050919050565b6000602082019050818103600083015261111881610e65565b9050919050565b6000602082019050818103600083015261113881610ea5565b9050919050565b6000602082019050818103600083015261115881610f0b565b9050919050565b600060208201905081810360008301526111798184610fd4565b905092915050565b6000602082019050611196600083018461106c565b92915050565b600060c0820190506111b1600083018961106c565b81810360208301526111c38188610dac565b90506111d2604083018761106c565b6111df606083018661106c565b6111ec6080830185610d64565b6111f960a0830184610cd1565b979650505050505050565b6000604051905081810181811067ffffffffffffffff8211171561122b5761122a611462565b5b8060405250919050565b600067ffffffffffffffff8211156112505761124f611462565b5b601f19601f8301169050602081019050919050565b6000819050602082019050919050565b600081519050919050565b600081519050919050565b6000602082019050919050565b600082825260208201905092915050565b600082825260208201905092915050565b600082825260208201905092915050565b60006112d68261133d565b91506112e18361133d565b9250828210156112f4576112f3611404565b5b828203905092915050565b600061130a8261131d565b9050919050565b60008115159050919050565b600073ffffffffffffffffffffffffffffffffffffffff82169050919050565b6000819050919050565b82818337600083830152505050565b60005b83811015611374578082015181840152602081019050611359565b83811115611383576000848401525b50505050565b600060028204905060018216806113a157607f821691505b602082108114156113b5576113b4611433565b5b50919050565b60006113c68261133d565b91507fffffffffffffffffffffffffffffffffffffffffffffffffffffffffffffffff8214156113f9576113f8611404565b5b600182019050919050565b7f4e487b7100000000000000000000000000000000000000000000000000000000600052601160045260246000fd5b7f4e487b7100000000000000000000000000000000000000000000000000000000600052602260045260246000fd5b7f4e487b7100000000000000000000000000000000000000000000000000000000600052604160045260246000fd5b6000601f19601f8301169050919050565b6114ab8161133d565b81146114b657600080fd5b5056fea2646970667358221220f7a979b024d49e971c5e892b867620b1b584a2c87a5a5b1013d476361ee2a8c764736f6c63430008000033",
  "linkReferences": {},
  "deployedLinkReferences": {}
}