{
  "_format": "hh-sol-artifact-1",
  "contractName": "DonorRegistry",
  "sourceName": "contracts/DonorRegistry.sol",
  "abi": [
    {
      "anonymous": false,
      "inputs": [
        {
          "indexed": true,
          "internalType": "uint256",
          "name": "donorId",
          "type": "uint256"
        },
        {
          "indexed": true,
          "internalType": "address",
          "name": "owner",
          "type": "address"
        },
        {
          "indexed": false,
          "internalType": "string",
          "name": "metadataCID",
          "type": "string"
        }
      ],
      "name": "DonorRegistered",
      "type": "event"
    },
    {
      "anonymous": false,
      "inputs": [
        {
          "indexed": true,
          "internalType": "uint256",
          "name": "donorId",
          "type": "uint256"
        },
        {
          "indexed": false,
          "internalType": "uint256",
          "name": "newUsageCount",
          "type": "uint256"
        }
      ],
      "name": "DonorUsageUpdated",
      "type": "event"
    },
    {
      "inputs": [],
      "name": "donorCount",
      "outputs": [
        {
          "internalType": "uint256",
          "name": "",
          "type": "uint256"
        }
      ],
      "stateMutability": "view",
      "type": "function"
    },
    {
      "inputs": [
        {
          "internalType": "uint256",
          "name": "",
          "type": "uint256"
        }
      ],
      "name": "donors",
      "outputs": [
        {
          "internalType": "uint256",
          "name": "id",
          "type": "uint256"
        },
        {
          "internalType": "string",
          "name": "metadataCID",
          "type": "string"
        },
        {
          "internalType": "uint256",
          "name": "usageCount",
          "type": "uint256"
        },
        {
          "internalType": "uint256",
          "name": "maxUsage",
          "type": "uint256"
        },
        {
          "internalType": "bool",
          "name": "isActive",
          "type": "bool"
        },
        {
          "internalType": "address",
          "name": "owner",
          "type": "address"
        }
      ],
      "stateMutability": "view",
      "type": "function"
    },
    {
      "inputs": [
        {
          "internalType": "uint256",
          "name": "donorId",
          "type": "uint256"
        }
      ],
      "name": "incrementDonorUsage",
      "outputs": [],
      "stateMutability": "nonpayable",
      "type": "function"
    },
    {
      "inputs": [
        {
          "internalType": "string",
          "name": "metadataCID",
          "type": "string"
        }
      ],
      "name": "registerDonor",
      "outputs": [],
      "stateMutability": "nonpayable",
      "type": "function"
    },
    {
      "inputs": [],
      "name": "totalSuccessfulMatches",
      "outputs": [
        {
          "internalType": "uint256",
          "name": "",
          "type": "uint256"
        }
      ],
      "stateMutability": "view",
      "type": "function"
    }
  ],
  "bytecode": "0x608060405234801561001057600080fd5b50610c49806100206000396000f3fe608060405234801561001057600080fd5b50600436106100575760003560e01c80630a7c3acf1461005c5780634abfa163146100785780634cf1867d146100ad578063c407670f146100c9578063c58fb3a4146100e7575b600080fd5b61007660048036038101906100719190610728565b610105565b005b610092600480360381019061008d9190610728565b610317565b6040516100a496959493929190610974565b60405180910390f35b6100c760048036038101906100c291906106e7565b610408565b005b6100d16105bb565b6040516100de9190610959565b60405180910390f35b6100ef6105c1565b6040516100fc9190610959565b60405180910390f35b60008111801561011757506001548111155b610156576040517f08c379a000000000000000000000000000000000000000000000000000000000815260040161014d906108d9565b60405180910390fd5b60008082815260200190815260200160002060040160009054906101000a900460ff166101b8576040517f08c379a00000000000000000000000000000000000000000000000000000000081526004016101af90610919565b60405180910390fd5b600080828152602001908152602001600020600301546000808381526020019081526020016000206002015410610224576040517f08c379a000000000000000000000000000000000000000000000000000000000815260040161021b90610939565b60405180910390fd5b600080828152602001908152602001600020600201600081548092919061024a90610b15565b91905055506000808281526020019081526020016000206003015460008083815260200190815260200160002060020154106102af57600080600083815260200190815260200160002060040160006101000a81548160ff0219169083151502179055505b600260008154809291906102c290610b15565b9190505550807f63a6e9f5f1ddec945794bf4718e8bee97eacd963ff8afa7ba75ab8749c14b66c6000808481526020019081526020016000206002015460405161030c9190610959565b60405180910390a250565b600060205280600052604060002060009150905080600001549080600101805461034090610ae3565b80601f016020809104026020016040519081016040528092919081815260200182805461036c90610ae3565b80156103b95780601f1061038e576101008083540402835291602001916103b9565b820191906000526020600020905b81548152906001019060200180831161039c57829003601f168201915b5050505050908060020154908060030154908060040160009054906101000a900460ff16908060040160019054906101000a900473ffffffffffffffffffffffffffffffffffffffff16905086565b600081511161044c576040517f08c379a0000000000000000000000000000000000000000000000000000000008152600401610443906108f9565b60405180910390fd5b6001600081548092919061045f90610b15565b91905055506040518060c00160405280600154815260200182815260200160008152602001600381526020016001151581526020013373ffffffffffffffffffffffffffffffffffffffff1681525060008060015481526020019081526020016000206000820151816000015560208201518160010190805190602001906104e89291906105c7565b50604082015181600201556060820151816003015560808201518160040160006101000a81548160ff02191690831515021790555060a08201518160040160016101000a81548173ffffffffffffffffffffffffffffffffffffffff021916908373ffffffffffffffffffffffffffffffffffffffff1602179055509050503373ffffffffffffffffffffffffffffffffffffffff166001547f40e6e92d415a6b6b15703f02efd642a1d536d8cf587ccc3cc1e3a843bf883f83836040516105b091906108b7565b60405180910390a350565b60015481565b60025481565b8280546105d390610ae3565b90600052602060002090601f0160209004810192826105f5576000855561063c565b82601f1061060e57805160ff191683800117855561063c565b8280016001018555821561063c579182015b8281111561063b578251825591602001919060010190610620565b5b509050610649919061064d565b5090565b5b8082111561066657600081600090555060010161064e565b5090565b600061067d61067884610a0d565b6109dc565b90508281526020810184848401111561069557600080fd5b6106a0848285610aa1565b509392505050565b600082601f8301126106b957600080fd5b81356106c984826020860161066a565b91505092915050565b6000813590506106e181610bfc565b92915050565b6000602082840312156106f957600080fd5b600082013567ffffffffffffffff81111561071357600080fd5b61071f848285016106a8565b91505092915050565b60006020828403121561073a57600080fd5b6000610748848285016106d2565b91505092915050565b61075a81610a59565b82525050565b61076981610a6b565b82525050565b600061077a82610a3d565b6107848185610a48565b9350610794818560208601610ab0565b61079d81610beb565b840191505092915050565b60006107b5601083610a48565b91507f496e76616c696420646f6e6f72204944000000000000000000000000000000006000830152602082019050919050565b60006107f5601c83610a48565b91507f4d65746164617461204349442063616e6e6f7420626520656d707479000000006000830152602082019050919050565b6000610835601383610a48565b91507f446f6e6f72206973206e6f7420616374697665000000000000000000000000006000830152602082019050919050565b6000610875601583610a48565b91507f4d6178696d756d207573616765207265616368656400000000000000000000006000830152602082019050919050565b6108b181610a97565b82525050565b600060208201905081810360008301526108d1818461076f565b905092915050565b600060208201905081810360008301526108f2816107a8565b9050919050565b60006020820190508181036000830152610912816107e8565b9050919050565b6000602082019050818103600083015261093281610828565b9050919050565b6000602082019050818103600083015261095281610868565b9050919050565b600060208201905061096e60008301846108a8565b92915050565b600060c08201905061098960008301896108a8565b818103602083015261099b818861076f565b90506109aa60408301876108a8565b6109b760608301866108a8565b6109c46080830185610760565b6109d160a0830184610751565b979650505050505050565b6000604051905081810181811067ffffffffffffffff82111715610a0357610a02610bbc565b5b8060405250919050565b600067ffffffffffffffff821115610a2857610a27610bbc565b5b601f19601f8301169050602081019050919050565b600081519050919050565b600082825260208201905092915050565b6000610a6482610a77565b9050919050565b60008115159050919050565b600073ffffffffffffffffffffffffffffffffffffffff82169050919050565b6000819050919050565b82818337600083830152505050565b60005b83811015610ace578082015181840152602081019050610ab3565b83811115610add576000848401525b50505050565b60006002820490506001821680610afb57607f821691505b60208210811415610b0f57610b0e610b8d565b5b50919050565b6000610b2082610a97565b91507fffffffffffffffffffffffffffffffffffffffffffffffffffffffffffffffff821415610b5357610b52610b5e565b5b600182019050919050565b7f4e487b7100000000000000000000000000000000000000000000000000000000600052601160045260246000fd5b7f4e487b7100000000000000000000000000000000000000000000000000000000600052602260045260246000fd5b7f4e487b7100000000000000000000000000000000000000000000000000000000600052604160045260246000fd5b6000601f19601f8301169050919050565b610c0581610a97565b8114610c1057600080fd5b5056fea2646970667358221220b0492269b4706d6a40598257a267e6bdfd0bb82d8653307a3e5a5d48cc14bcfb64736f6c63430008000033",
  "linkReferences": {},
  "deployedLinkReferences": {}
}