{
  "_format": "hh-sol-artifact-1",
  "contractName": "DonorRegistry",
  "sourceName": "contracts/DonorRegistry.sol",
  "abi": [
    {
      "inputs": [],
      "stateMutability": "nonpayable",
      "type": "constructor"
    },
    {
      "anonymous": false,
      "inputs": [
        {
          "indexed": true,
          "internalType": "uint256",
          "name": "donorId",
          "type": "uint256"
        },
        {
          "indexed": true,
          "internalType": "address",
          "name": "owner",
          "type": "address"
        },
        {
          "indexed": false,
          "internalType": "string",
          "name": "metadataCID",
          "type": "string"
        }
      ],
      "name": "DonorRegistered",
      "type": "event"
    },
    {
      "anonymous": false,
      "inputs": [
        {
          "indexed": true,
          "internalType": "uint256",
          "name": "donorId",
          "type": "uint256"
        },
        {
          "indexed": false,
          "internalType": "uint256",
          "name": "newUsageCount",
          "type": "uint256"
        }
      ],
      "name": "DonorUsageUpdated",
      "type": "event"
    },
    {
      "anonymous": false,
      "inputs": [
        {
          "indexed": false,
          "internalType": "uint256",
          "name": "newTotalMatches",
          "type": "uint256"
        }
      ],
      "name": "SuccessfulMatchIncremented",
      "type": "event"
    },
    {
      "inputs": [],
      "name": "donorCount",
      "outputs": [
        {
          "internalType": "uint256",
          "name": "",
          "type": "uint256"
        }
      ],
      "stateMutability": "view",
      "type": "function"
    },
    {
      "inputs": [
        {
          "internalType": "uint256",
          "name": "",
          "type": "uint256"
        }
      ],
      "name": "donors",
      "outputs": [
        {
          "internalType": "uint256",
          "name": "id",
          "type": "uint256"
        },
        {
          "internalType": "string",
          "name": "metadataCID",
          "type": "string"
        },
        {
          "internalType": "uint256",
          "name": "usageCount",
          "type": "uint256"
        },
        {
          "internalType": "uint256",
          "name": "maxUsage",
          "type": "uint256"
        },
        {
          "internalType": "bool",
          "name": "isActive",
          "type": "bool"
        },
        {
          "internalType": "address",
          "name": "owner",
          "type": "address"
        }
      ],
      "stateMutability": "view",
      "type": "function"
    },
    {
      "inputs": [
        {
          "internalType": "uint256",
          "name": "donorId",
          "type": "uint256"
        }
      ],
      "name": "getDonor",
      "outputs": [
        {
          "internalType": "uint256",
          "name": "",
          "type": "uint256"
        },
        {
          "internalType": "string",
          "name": "",
          "type": "string"
        },
        {
          "internalType": "uint256",
          "name": "",
          "type": "uint256"
        },
        {
          "internalType": "uint256",
          "name": "",
          "type": "uint256"
        },
        {
          "internalType": "bool",
          "name": "",
          "type": "bool"
        },
        {
          "internalType": "address",
          "name": "",
          "type": "address"
        }
      ],
      "stateMutability": "view",
      "type": "function"
    },
    {
      "inputs": [],
      "name": "getDonors",
      "outputs": [
        {
          "internalType": "uint256[]",
          "name": "ids",
          "type": "uint256[]"
        },
        {
          "internalType": "string[]",
          "name": "metadataCIDs",
          "type": "string[]"
        },
        {
          "internalType": "uint256[]",
          "name": "usageCounts",
          "type": "uint256[]"
        },
        {
          "internalType": "uint256[]",
          "name": "maxUsages",
          "type": "uint256[]"
        },
        {
          "internalType": "bool[]",
          "name": "isActives",
          "type": "bool[]"
        },
        {
          "internalType": "address[]",
          "name": "owners",
          "type": "address[]"
        }
      ],
      "stateMutability": "view",
      "type": "function"
    },
    {
      "inputs": [],
      "name": "getTotalSuccessfulMatches",
      "outputs": [
        {
          "internalType": "uint256",
          "name": "",
          "type": "uint256"
        }
      ],
      "stateMutability": "view",
      "type": "function"
    },
    {
      "inputs": [
        {
          "internalType": "uint256",
          "name": "donorId",
          "type": "uint256"
        }
      ],
      "name": "incrementDonorUsage",
      "outputs": [],
      "stateMutability": "nonpayable",
      "type": "function"
    },
    {
      "inputs": [
        {
          "internalType": "string",
          "name": "metadataCID",
          "type": "string"
        },
        {
          "internalType": "uint256",
          "name": "_maxUsage",
          "type": "uint256"
        }
      ],
      "name": "registerDonor",
      "outputs": [],
      "stateMutability": "nonpayable",
      "type": "function"
    },
    {
      "inputs": [],
      "name": "totalSuccessfulMatches",
      "outputs": [
        {
          "internalType": "uint256",
          "name": "",
          "type": "uint256"
        }
      ],
      "stateMutability": "view",
      "type": "function"
    }
  ],
  "bytecode": "0x608060405234801561001057600080fd5b50611aff806100206000396000f3fe608060405234801561001057600080fd5b50600436106100885760003560e01c8063aefb11e31161005b578063aefb11e314610136578063c407670f14610154578063c58fb3a414610172578063e511e24a1461019057610088565b80630a7c3acf1461008d5780634abfa163146100a95780636136a906146100de57806396f300d414610113575b600080fd5b6100a760048036038101906100a291906110cd565b6101ac565b005b6100c360048036038101906100be91906110cd565b61049c565b6040516100d596959493929190611701565b60405180910390f35b6100f860048036038101906100f391906110cd565b61058d565b60405161010a96959493929190611701565b60405180910390f35b61011b61075e565b60405161012d96959493929190611579565b60405180910390f35b61013e610d4d565b60405161014b91906116e6565b60405180910390f35b61015c610d57565b60405161016991906116e6565b60405180910390f35b61017a610d5d565b60405161018791906116e6565b60405180910390f35b6101aa60048036038101906101a59190611079565b610d63565b005b8060008082815260200190815260200160002060040160019054906101000a900473ffffffffffffffffffffffffffffffffffffffff1673ffffffffffffffffffffffffffffffffffffffff163373ffffffffffffffffffffffffffffffffffffffff1614610250576040517f08c379a000000000000000000000000000000000000000000000000000000000815260040161024790611646565b60405180910390fd5b60008211801561026257506001548211155b6102a1576040517f08c379a000000000000000000000000000000000000000000000000000000000815260040161029890611626565b60405180910390fd5b60008083815260200190815260200160002060040160009054906101000a900460ff16610303576040517f08c379a00000000000000000000000000000000000000000000000000000000081526004016102fa90611686565b60405180910390fd5b60008083815260200190815260200160002060030154600080848152602001908152602001600020600201541061036f576040517f08c379a0000000000000000000000000000000000000000000000000000000008152600401610366906116c6565b60405180910390fd5b6000808381526020019081526020016000206002016000815480929190610395906119cb565b91905055506000808381526020019081526020016000206003015460008084815260200190815260200160002060020154106103fa57600080600084815260200190815260200160002060040160006101000a81548160ff0219169083151502179055505b6002600081548092919061040d906119cb565b9190505550817f63a6e9f5f1ddec945794bf4718e8bee97eacd963ff8afa7ba75ab8749c14b66c6000808581526020019081526020016000206002015460405161045791906116e6565b60405180910390a27fd8ab92b6640889a4318c98e0550a935a24d65d2fd129270b60cf196d76446a6b60025460405161049091906116e6565b60405180910390a15050565b60006020528060005260406000206000915090508060000154908060010180546104c590611999565b80601f01602080910402602001604051908101604052809291908181526020018280546104f190611999565b801561053e5780601f106105135761010080835404028352916020019161053e565b820191906000526020600020905b81548152906001019060200180831161052157829003601f168201915b5050505050908060020154908060030154908060040160009054906101000a900460ff16908060040160019054906101000a900473ffffffffffffffffffffffffffffffffffffffff16905086565b600060606000806000806000871180156105a957506001548711155b6105e8576040517f08c379a00000000000000000000000000000000000000000000000000000000081526004016105df90611626565b60405180910390fd5b60008060008981526020019081526020016000206040518060c00160405290816000820154815260200160018201805461062190611999565b80601f016020809104026020016040519081016040528092919081815260200182805461064d90611999565b801561069a5780601f1061066f5761010080835404028352916020019161069a565b820191906000526020600020905b81548152906001019060200180831161067d57829003601f168201915b5050505050815260200160028201548152602001600382015481526020016004820160009054906101000a900460ff161515151581526020016004820160019054906101000a900473ffffffffffffffffffffffffffffffffffffffff1673ffffffffffffffffffffffffffffffffffffffff1673ffffffffffffffffffffffffffffffffffffffff16815250509050806000015181602001518260400151836060015184608001518560a001519650965096509650965096505091939550919395565b60608060608060608060015467ffffffffffffffff8111156107a9577f4e487b7100000000000000000000000000000000000000000000000000000000600052604160045260246000fd5b6040519080825280602002602001820160405280156107d75781602001602082028036833780820191505090505b50955060015467ffffffffffffffff81111561081c577f4e487b7100000000000000000000000000000000000000000000000000000000600052604160045260246000fd5b60405190808252806020026020018201604052801561084f57816020015b606081526020019060019003908161083a5790505b50945060015467ffffffffffffffff811115610894577f4e487b7100000000000000000000000000000000000000000000000000000000600052604160045260246000fd5b6040519080825280602002602001820160405280156108c25781602001602082028036833780820191505090505b50935060015467ffffffffffffffff811115610907577f4e487b7100000000000000000000000000000000000000000000000000000000600052604160045260246000fd5b6040519080825280602002602001820160405280156109355781602001602082028036833780820191505090505b50925060015467ffffffffffffffff81111561097a577f4e487b7100000000000000000000000000000000000000000000000000000000600052604160045260246000fd5b6040519080825280602002602001820160405280156109a85781602001602082028036833780820191505090505b50915060015467ffffffffffffffff8111156109ed577f4e487b7100000000000000000000000000000000000000000000000000000000600052604160045260246000fd5b604051908082528060200260200182016040528015610a1b5781602001602082028036833780820191505090505b5090506000600190505b6001548111610d445760008060008381526020019081526020016000209050806000015488600184610a5791906118db565b81518110610a8e577f4e487b7100000000000000000000000000000000000000000000000000000000600052603260045260246000fd5b602002602001018181525050806001018054610aa990611999565b80601f0160208091040260200160405190810160405280929190818152602001828054610ad590611999565b8015610b225780601f10610af757610100808354040283529160200191610b22565b820191906000526020600020905b815481529060010190602001808311610b0557829003601f168201915b505050505087600184610b3591906118db565b81518110610b6c577f4e487b7100000000000000000000000000000000000000000000000000000000600052603260045260246000fd5b6020026020010181905250806002015486600184610b8a91906118db565b81518110610bc1577f4e487b7100000000000000000000000000000000000000000000000000000000600052603260045260246000fd5b602002602001018181525050806003015485600184610be091906118db565b81518110610c17577f4e487b7100000000000000000000000000000000000000000000000000000000600052603260045260246000fd5b6020026020010181815250508060040160009054906101000a900460ff1684600184610c4391906118db565b81518110610c7a577f4e487b7100000000000000000000000000000000000000000000000000000000600052603260045260246000fd5b6020026020010190151590811515815250508060040160019054906101000a900473ffffffffffffffffffffffffffffffffffffffff1683600184610cbf91906118db565b81518110610cf6577f4e487b7100000000000000000000000000000000000000000000000000000000600052603260045260246000fd5b602002602001019073ffffffffffffffffffffffffffffffffffffffff16908173ffffffffffffffffffffffffffffffffffffffff1681525050508080610d3c906119cb565b915050610a25565b50909192939495565b6000600254905090565b60015481565b60025481565b6000825111610da7576040517f08c379a0000000000000000000000000000000000000000000000000000000008152600401610d9e90611666565b60405180910390fd5b60008111610dea576040517f08c379a0000000000000000000000000000000000000000000000000000000008152600401610de1906116a6565b60405180910390fd5b60016000815480929190610dfd906119cb565b91905055506040518060c001604052806001548152602001838152602001600081526020018281526020016001151581526020013373ffffffffffffffffffffffffffffffffffffffff168152506000806001548152602001908152602001600020600082015181600001556020820151816001019080519060200190610e85929190610f59565b50604082015181600201556060820151816003015560808201518160040160006101000a81548160ff02191690831515021790555060a08201518160040160016101000a81548173ffffffffffffffffffffffffffffffffffffffff021916908373ffffffffffffffffffffffffffffffffffffffff1602179055509050503373ffffffffffffffffffffffffffffffffffffffff166001547f40e6e92d415a6b6b15703f02efd642a1d536d8cf587ccc3cc1e3a843bf883f8384604051610f4d9190611604565b60405180910390a35050565b828054610f6590611999565b90600052602060002090601f016020900481019282610f875760008555610fce565b82601f10610fa057805160ff1916838001178555610fce565b82800160010185558215610fce579182015b82811115610fcd578251825591602001919060010190610fb2565b5b509050610fdb9190610fdf565b5090565b5b80821115610ff8576000816000905550600101610fe0565b5090565b600061100f61100a8461179a565b611769565b90508281526020810184848401111561102757600080fd5b611032848285611957565b509392505050565b600082601f83011261104b57600080fd5b813561105b848260208601610ffc565b91505092915050565b60008135905061107381611ab2565b92915050565b6000806040838503121561108c57600080fd5b600083013567ffffffffffffffff8111156110a657600080fd5b6110b28582860161103a565b92505060206110c385828601611064565b9150509250929050565b6000602082840312156110df57600080fd5b60006110ed84828501611064565b91505092915050565b60006111028383611152565b60208301905092915050565b600061111a83836112ff565b60208301905092915050565b6000611132838361131d565b905092915050565b6000611146838361155b565b60208301905092915050565b61115b8161190f565b82525050565b61116a8161190f565b82525050565b600061117b8261180a565b6111858185611875565b9350611190836117ca565b8060005b838110156111c15781516111a888826110f6565b97506111b383611841565b925050600181019050611194565b5085935050505092915050565b60006111d982611815565b6111e38185611886565b93506111ee836117da565b8060005b8381101561121f578151611206888261110e565b97506112118361184e565b9250506001810190506111f2565b5085935050505092915050565b600061123782611820565b6112418185611897565b935083602082028501611253856117ea565b8060005b8581101561128f57848403895281516112708582611126565b945061127b8361185b565b925060208a01995050600181019050611257565b50829750879550505050505092915050565b60006112ac8261182b565b6112b681856118a8565b93506112c1836117fa565b8060005b838110156112f25781516112d9888261113a565b97506112e483611868565b9250506001810190506112c5565b5085935050505092915050565b61130881611921565b82525050565b61131781611921565b82525050565b600061132882611836565b61133281856118b9565b9350611342818560208601611966565b61134b81611aa1565b840191505092915050565b600061136182611836565b61136b81856118ca565b935061137b818560208601611966565b61138481611aa1565b840191505092915050565b600061139c6010836118ca565b91507f496e76616c696420646f6e6f72204944000000000000000000000000000000006000830152602082019050919050565b60006113dc6021836118ca565b91507f4f6e6c7920646f6e6f72206f776e65722063616e20757064617465207573616760008301527f65000000000000000000000000000000000000000000000000000000000000006020830152604082019050919050565b6000611442601c836118ca565b91507f4d65746164617461204349442063616e6e6f7420626520656d707479000000006000830152602082019050919050565b60006114826013836118ca565b91507f446f6e6f72206973206e6f7420616374697665000000000000000000000000006000830152602082019050919050565b60006114c26023836118ca565b91507f4d6178207573616765206d7573742062652067726561746572207468616e207a60008301527f65726f00000000000000000000000000000000000000000000000000000000006020830152604082019050919050565b60006115286015836118ca565b91507f4d6178696d756d207573616765207265616368656400000000000000000000006000830152602082019050919050565b6115648161194d565b82525050565b6115738161194d565b82525050565b600060c082019050818103600083015261159381896112a1565b905081810360208301526115a7818861122c565b905081810360408301526115bb81876112a1565b905081810360608301526115cf81866112a1565b905081810360808301526115e381856111ce565b905081810360a08301526115f78184611170565b9050979650505050505050565b6000602082019050818103600083015261161e8184611356565b905092915050565b6000602082019050818103600083015261163f8161138f565b9050919050565b6000602082019050818103600083015261165f816113cf565b9050919050565b6000602082019050818103600083015261167f81611435565b9050919050565b6000602082019050818103600083015261169f81611475565b9050919050565b600060208201905081810360008301526116bf816114b5565b9050919050565b600060208201905081810360008301526116df8161151b565b9050919050565b60006020820190506116fb600083018461156a565b92915050565b600060c082019050611716600083018961156a565b81810360208301526117288188611356565b9050611737604083018761156a565b611744606083018661156a565b611751608083018561130e565b61175e60a0830184611161565b979650505050505050565b6000604051905081810181811067ffffffffffffffff821117156117905761178f611a72565b5b8060405250919050565b600067ffffffffffffffff8211156117b5576117b4611a72565b5b601f19601f8301169050602081019050919050565b6000819050602082019050919050565b6000819050602082019050919050565b6000819050602082019050919050565b6000819050602082019050919050565b600081519050919050565b600081519050919050565b600081519050919050565b600081519050919050565b600081519050919050565b6000602082019050919050565b6000602082019050919050565b6000602082019050919050565b6000602082019050919050565b600082825260208201905092915050565b600082825260208201905092915050565b600082825260208201905092915050565b600082825260208201905092915050565b600082825260208201905092915050565b600082825260208201905092915050565b60006118e68261194d565b91506118f18361194d565b92508282101561190457611903611a14565b5b828203905092915050565b600061191a8261192d565b9050919050565b60008115159050919050565b600073ffffffffffffffffffffffffffffffffffffffff82169050919050565b6000819050919050565b82818337600083830152505050565b60005b83811015611984578082015181840152602081019050611969565b83811115611993576000848401525b50505050565b600060028204905060018216806119b157607f821691505b602082108114156119c5576119c4611a43565b5b50919050565b60006119d68261194d565b91507fffffffffffffffffffffffffffffffffffffffffffffffffffffffffffffffff821415611a0957611a08611a14565b5b600182019050919050565b7f4e487b7100000000000000000000000000000000000000000000000000000000600052601160045260246000fd5b7f4e487b7100000000000000000000000000000000000000000000000000000000600052602260045260246000fd5b7f4e487b7100000000000000000000000000000000000000000000000000000000600052604160045260246000fd5b6000601f19601f8301169050919050565b611abb8161194d565b8114611ac657600080fd5b5056fea264697066735822122025142f6f1291bc62730d06056e52e285fcd6a2704bb68565ae3954d531f7d77364736f6c63430008000033",
  "linkReferences": {},
  "deployedLinkReferences": {}
}